:100000000C94C4000C94EC000C94EC000C94EC00E8
:100010000C94EC000C94EC000C94EC000C94EC00B0
:100020000C94EC000C94EC000C94EC000C94EC00A0
:100030000C94EC000C94EC000C94EC000C94EC0090
:100040000C94220D0C94EC000C9473120C944D1231
:100050000C94EC000C94EC000C94EC000C94EC0070
:100060000C94B2010C94EC00C809CE09D809E60939
:10007000E809EE09F809060A180A1A0A20536574F5
:1000800075702D3E2000496E7465726665726F6DE5
:100090006574726F00496E696369616E646F0053C5
:1000A000657475702D3E2000496E746572666572C8
:1000B0006F6D6574726F00496E696369616E646F1C
:1000C0000073746570733A0073746570733A0073EB
:1000D000746570733A004D61696E53637265656E45
:1000E0002D3E20002D2D54656C6120496E69636999
:1000F000616C2D2D002D2D2D2D2D2D4D656E752D09
:100100002D2D2D2D2D0000000000250028002B0096
:1001100000000000240027002A0004040404040452
:1001200004040202020202020303030303030102A6
:100130000408102040800102040810200102040875
:100140001020000000080002010000030407000066
:100150000000000000004D61696E53637265656EBA
:100160002D3E20002D2D54656C6120496E69636918
:10017000616C2D2D002D2D2D2D2D2D4D656E752D88
:100180002D2D2D2D2D007B1711241FBECFEFD8E074
:10019000DEBFCDBF24E0A0ECB1E001C01D92A93AC2
:1001A000B207E1F711E0A0E0B1E0E2E3F6E302C05C
:1001B00005900D92A03CB107D9F710E0C4ECD0E057
:1001C00004C02197FE010E94F818C33CD107C9F76B
:1001D0000E9404130C94171B0C94000085ED80936F
:1001E000BC008091BC0084FDFCCF10927A0408957D
:1001F0002091020130910301205E3F4F30930301B3
:10020000209302014AE0429FC001439F900D1124B8
:1002100097FDCF9646E0959587954A95E1F7092E8B
:10022000000CAA0BBB0B80930A0190930B01A093C7
:100230000C01B0930D0121153A4534F080E09AE5A8
:1002400090930301809302010895809100019091A1
:10025000010181159A4534F080E09AE590930101FF
:1002600080930001089581E00E94AA0B9093A0045E
:1002700080939F048035910554F08E3422E09207DC
:100280004CF0843893404CF083E090E0089580E097
:1002900090E0089581E090E0089582E090E0089574
:1002A00080E00E94AA0B9093C9018093C801803D11
:1002B00023E0920724F58931910594F08B34910560
:1002C00094F08D37910594F08F3A910594F0813E2A
:1002D000910594F08C32914094F485E090E008957B
:1002E00080E090E0089581E090E0089582E090E061
:1002F000089583E090E0089584E090E0089586E01A
:1003000090E00895EF92FF920F931F93CF938C018B
:10031000FC0184E0C0E060FF02C090A1C92B66959B
:10032000815031968111F7CF413011F4F801478D9A
:10033000F801808DC82BC42B7801F9E1EF0EF11C78
:10034000F801658D6C2BC7010E94D20EF801658DF6
:1003500060956C23C701CF911F910F91FF90EF9093
:100360000C94D20E1F920F920FB60F9211242F935E
:100370003F934F935F936F937F938F939F93AF932D
:10038000BF93EF93FF938091B900887F803609F483
:100390009CC068F5883209F45BC090F4803109F4A0
:1003A00054C038F4882309F4F6C0883009F44DC0ED
:1003B000F6C0883109F44CC0803209F45DC0EFC04A
:1003C000803409F468C048F4803309F455C0883398
:1003D00009F0E5C080937804D8C0803509F44FC097
:1003E000883509F45DC0883409F0D9C0D6C0883991
:1003F00009F4C7C0A8F4883709F467C038F4883610
:1004000009F463C0803709F460C0C9C0883809F4B2
:10041000B8C0803909F45FC0803809F0C0C05BC043
:10042000803B09F486C038F4803A09F466C0883A03
:1004300009F47FC0B4C0803C09F4A7C0883C09F42B
:10044000A4C0883B09F48AC0AAC08091550410C09A
:100450009091770480917604981770F5E091770475
:1004600081E08E0F80937704F0E0EA5AFB4F8081A1
:100470008093BB0085EC86C0809378048EC0E091A9
:10048000770481E08E0F809377048091BB00F0E0C9
:10049000EA5AFB4F808390917704809176046EC076
:1004A000E091770481E08E0F809377048091BB0008
:1004B000F0E0EA5AFB4F80838091790481116DC08E
:1004C00081E08093540484EA61C083E080937A04DD
:1004D00010920C02CFCF80910C02803208F051C0F4
:1004E000E0910C0281E08E0F80930C028091BB00A2
:1004F000F0E0E451FE4F8083BDCF85EC8093BC00DB
:1005000010927A0480910C02803230F4E0910C0257
:10051000F0E0E451FE4F108260910C0270E0E09137
:10052000C601F091C7018CEE91E0099510920C0282
:1005300036C084E080937A041092EB011092EA01B5
:10054000E091C401F091C50109958091EA01811102
:1005500005C081E08093EA011092CA01E091EB01AD
:1005600081E08E0F8093EB01F0E0E653FE4F808137
:100570008093BB009091EB018091EA01981708F4F9
:1005800079CF85E88093BC000AC085EC8093BC00DD
:1005900010927A0404C0109278040E94EE00FF9139
:1005A000EF91BF91AF919F918F917F916F915F91EB
:1005B0004F913F912F910F900FBE0F901F90189564
:1005C0004091EA01262F30E0240F311D2132310500
:1005D000DCF420917A042430C9F4FC0180E090E03E
:1005E000861758F43091EA012191DC01A653BE4FE1
:1005F000A30FB11D2C930196F3CF8091EA01680FF0
:100600006093EA0180E0089581E0089582E0089512
:10061000EF92FF920F931F93CF93DF93CDB7DEB787
:100620006E970FB6F894DEBF0FBECDBF8BE0E82EFD
:10063000F12C0AE010E029E030E048E050E060E40E
:1006400070E0CE0101960E942B0B809100019091E9
:1006500001011816190624F01092010110920001F0
:100660006E960FB6F894DEBF0FBECDBFDF91CF916F
:100670001F910F91FF90EF900895EF92FF920F93CB
:100680001F93CF93DF93CDB7DEB76E970FB6F89475
:10069000DEBF0FBECDBF8BE0E82EF12C0AE010E0EC
:1006A00029E030E048E050E060E470E0CE010196DF
:1006B0000E942B0B29813A818091A1049091A20480
:1006C0000091020110910301232B19F4800F911F57
:1006D00004C02B813C81820F931F9093A2048093CE
:1006E000A10420910A0130910B0140910C0150911D
:1006F0000D0160E077E883E993E00E94D91829872B
:100700003A874B875C87B801CE0101960E94A00D05
:100710006FEC70E08CE292E00E9412128091A104D2
:100720009091A2040E941D0980910D0290910E02E9
:100730002091A1043091A2042817390724F0909346
:10074000A2048093A1046E960FB6F894DEBF0FBE8C
:10075000CDBFDF91CF911F910F91FF90EF90089542
:10076000EF92FF920F931F93CF93DF93CDB7DEB736
:100770006E970FB6F894DEBF0FBECDBF8BE0E82EAC
:10078000F12C0AE010E029E030E048E050E060E4BD
:1007900070E0CE0101960E942B0B29813A81809155
:1007A000A1049091A2040091000110910101232B5A
:1007B00019F4800F911F04C02B813C81820F931F7D
:1007C0009093A2048093A10420910A0130910B011F
:1007D00040910C0150910D0160E077E883E993E0CE
:1007E0000E94D91829873A874B875C87B801CE01C8
:1007F00001960E94A00D68EC70E08CE292E00E94ED
:1008000012128091A1049091A2040E941D0980916E
:100810000D0290910E022091A1043091A20428179C
:10082000390724F09093A2048093A1046E960FB62A
:10083000F894DEBF0FBECDBFDF91CF911F910F9116
:10084000FF90EF900895EF92FF920F931F93CF9335
:10085000DF93CDB7DEB76E970FB6F894DEBF0FBE4D
:10086000CDBF8BE0E82EF12C0AE010E029E030E06B
:1008700048E050E060E470E0CE0101960E942B0B4E
:100880008091000190910101092E000CAA0BBB0B75
:1008900040910A0150910B0160910C0170910D0182
:1008A000840F951FA61FB71F81152AE59207A10582
:1008B000B10524F080E09AE5A0E0B0E080930A0161
:1008C00090930B01A0930C01B0930D016E960FB69F
:1008D000F894DEBF0FBECDBFDF91CF911F910F9176
:1008E000FF90EF900895EF92FF920F931F93CF9395
:1008F000DF93CDB7DEB76E970FB6F894DEBF0FBEAD
:10090000CDBF8BE0E82EF12C0AE010E029E030E0CA
:1009100048E050E060E470E0CE0101960E942B0BAD
:1009200029813A818091A1049091A2040091000153
:1009300010910101232B19F4800F911F04C02B810A
:100940003C81820F931F9093A2048093A104209175
:100950000A0130910B0140910C0150910D0160E0B2
:1009600077E883E993E00E94D91829873A874B8773
:100970005C87B801CE0101960E94A00D61EC70E089
:100980008CE292E00E9412128091A1049091A20444
:100990000E941D0980910D0290910E022091A104E8
:1009A0003091A2042817390724F09093A204809371
:1009B000A1046E960FB6F894DEBF0FBECDBFDF91D7
:1009C000CF911F910F91FF90EF900895CF93DF93F8
:1009D00000D0CDB7DEB787E090E09093050180931B
:1009E00004018091A1049091A20490932502809328
:1009F00024029A838983BE016F5F7F4F87E090E076
:100A00000E94A5120F900F90DF91CF910895CF9380
:100A1000DF9300D0CDB7DEB785E090E0909307017B
:100A2000809306018091A1049091A20490932702E3
:100A3000809326029A838983BE016F5F7F4F85E092
:100A400090E00E94A5120F900F90DF91CF91089532
:100A5000CF93DF9300D0CDB7DEB783E090E09093E3
:100A60000901809308018091A1049091A2049093C0
:100A70002902809328029A838983BE016F5F7F4F8A
:100A800083E090E00E94A5120F900F90DF91CF912C
:100A90000895CF93DF9300D0CDB7DEB78091A10446
:100AA0009091A20490932B0280932A021092A204A8
:100AB0001092A1049A838983BE016F5F7F4F80E00B
:100AC00090E00E94A5120F900F90DF91CF910895B2
:100AD000EF92FF920F931F93CF93DF93CDB7DEB7C3
:100AE0006E970FB6F894DEBF0FBECDBF8BE0E82E39
:100AF000F12C0AE010E029E030E048E050E060E44A
:100B000070E0CE0101960E942B0B0091A104109180
:100B1000A2048091240290912502081B190B1093C6
:100B2000100200930F0220910A0130910B014091B5
:100B30000C0150910D0160E077E883E993E00E9499
:100B4000D91829873A874B875C8766277727601BE8
:100B5000710BCE0101960E94A00D8091240290910C
:100B600025029093A2048093A10469EB71E08CE2CA
:100B700092E00E944B128091A1049091A2040E94E5
:100B80001D096E960FB6F894DEBF0FBECDBFDF9184
:100B9000CF911F910F91FF90EF900895EF92FF92E8
:100BA0000F931F93CF93DF93CDB7DEB76E970FB63A
:100BB000F894DEBF0FBECDBF8BE0E82EF12C0AE02B
:100BC00010E029E030E048E050E060E470E0CE0161
:100BD00001960E942B0B0091A1041091A204809118
:100BE000260290912702081B190B10931002009304
:100BF0000F0220910A0130910B0140910C0150919C
:100C00000D0160E077E883E993E00E94D918298715
:100C10003A874B875C8766277727601B710BCE016D
:100C200001960E94A00D809124029091250290933C
:100C3000A2048093A10469EB71E08CE292E00E942F
:100C40004B128091A1049091A2040E941D096E96FE
:100C50000FB6F894DEBF0FBECDBFDF91CF911F91CD
:100C60000F91FF90EF900895EF92FF920F931F93D3
:100C7000CF93DF93CDB7DEB76E970FB6F894DEBF94
:100C80000FBECDBF8BE0E82EF12C0AE010E029E08A
:100C900030E048E050E060E470E0CE0101960E9450
:100CA0002B0B0091A1041091A20480912802909135
:100CB0002902081B190B1093100200930F022091B8
:100CC0000A0130910B0140910C0150910D0160E03F
:100CD00077E883E993E00E94D91829873A874B8700
:100CE0005C8766277727601B710BCE0101960E94F7
:100CF000A00D80912402909125029093A2048093EC
:100D0000A10469EB71E08CE292E00E944B128091A9
:100D1000A1049091A2040E941D096E960FB6F8944A
:100D2000DEBF0FBECDBFDF91CF911F910F91FF901E
:100D3000EF900895EF92FF920F931F93CF93DF935D
:100D4000CDB7DEB76E970FB6F894DEBF0FBECDBF3E
:100D50008BE0E82EF12C0AE010E029E030E048E0DA
:100D600050E060E470E0CE0101960E942B0B2981D7
:100D70003A818091A1049091A20400910201109106
:100D80000301232B19F4801B910B04C02B813C81A0
:100D9000821B930B9093A2048093A10420910A01DB
:100DA00030910B0140910C0150910D0160E077E80A
:100DB00083E993E00E94D91829873A874B875C879B
:100DC00066277727601B710BCE0101960E94A00D4C
:100DD00069EB71E08CE292E00E944B128091A104D9
:100DE0009091A2040E941D098091A1049091A204F7
:100DF0001816190624F01092A2041092A1046E96FF
:100E00000FB6F894DEBF0FBECDBFDF91CF911F911B
:100E10000F91FF90EF900895EF92FF920F931F9321
:100E2000CF93DF93CDB7DEB76E970FB6F894DEBFE2
:100E30000FBECDBF8BE0E82EF12C0AE010E029E0D8
:100E400030E048E050E060E470E0CE0101960E949E
:100E50002B0B29813A818091A1049091A2040091E9
:100E6000000110910101232B19F4801B910B04C088
:100E70002B813C81821B930B9093A2048093A1044D
:100E800020910A0130910B0140910C0150910D010C
:100E900060E077E883E993E00E94D91829873A87D0
:100EA0004B875C8766277727601B710BCE01019605
:100EB0000E94A00D69EB71E08CE292E00E944B125F
:100EC0008091A1049091A2040E941D098091A10427
:100ED0009091A2041816190624F01092A204109200
:100EE000A1046E960FB6F894DEBF0FBECDBFDF91A2
:100EF000CF911F910F91FF90EF900895EF92FF9285
:100F00000F931F93CF93DF93CDB7DEB76E970FB6D6
:100F1000F894DEBF0FBECDBF8BE0E82EF12C0AE0C7
:100F200010E029E030E048E050E060E470E0CE01FD
:100F300001960E942B0B4091000150910101052E5A
:100F4000000C660B770B80910A0190910B01A09128
:100F50000C01B0910D01841B950BA60BB70B181655
:100F600019061A061B064CF480930A0190930B0194
:100F7000A0930C01B0930D0108C010920A011092C9
:100F80000B0110920C0110920D016E960FB6F894A1
:100F9000DEBF0FBECDBFDF91CF911F910F91FF90AC
:100FA000EF900895EF92FF920F931F93CF93DF93EB
:100FB000CDB7DEB76E970FB6F894DEBF0FBECDBFCC
:100FC0005BE0E52EF12C0AE010E029E030E048E09B
:100FD00050E060E470E0CE0101960E942B0B20915E
:100FE0000201309103012052310930930301209313
:100FF00002014AE0429FC001439F900D112497FDDA
:10100000CF9646E0959587954A95E1F7092E000C15
:10101000AA0BBB0B80930A0190930B01A0930C01C8
:10102000B0930D011216130624F0109203011092D2
:1010300002016E960FB6F894DEBF0FBECDBFDF91F2
:10104000CF911F910F91FF90EF900895EF92FF9233
:101050000F931F93CF93DF93CDB7DEB7EE970FB605
:10106000F894DEBF0FBECDBFCE0101960E94D01214
:101070008BE0E82EF12C0AE010E029E030E048E0B7
:1010800050E060E470E0CE0181960E942B0B00914D
:10109000A1041091A20480912A0290912B02081BB6
:1010A000190B1093100200930F0220910A01309146
:1010B0000B0140910C0150910D0160E077E883E94C
:1010C00093E00E94D91829A73AA74BA75CA76627E7
:1010D0007727601B710BCE0181960E94A00D809135
:1010E0002402909125029093A2048093A10469EBBD
:1010F00071E08CE292E00E944B128091A1049091E9
:10110000A2040E941D09EE960FB6F894DEBF0FBE32
:10111000CDBFDF91CF911F910F91FF90EF90089578
:101120008F929F92AF92BF920F931F93CF93DF93B3
:10113000CDB7DEB7A1970FB6F894DEBF0FBECDBF17
:1011400019A2423008F44AE08E010F5D1F4F842E31
:10115000912CA12CB12CA50194010E94B718E62F67
:10116000B901CA0101501109EA3014F4E05D01C06F
:10117000E95CD801EC93232B242B252B61F7B801D4
:101180008CE292E00E943612A1960FB6F894DEBF70
:101190000FBECDBFDF91CF911F910F91BF90AF9048
:1011A0009F908F900895CF92DF92EF92FF92CF930E
:1011B000DF936B017C016DE28CE292E00E944C11A6
:1011C000EC0166277727CB016C197D098E099F09F1
:1011D0004AE00E9490088C0F9D1FDF91CF91FF90F5
:1011E000EF90DF90CF90089590E0FC01E25DFE4F1C
:1011F0002491FC01E65EFE4F8491882399F090E0F3
:10120000880F991FFC01E05FFE4FA591B491FC018E
:10121000EA5FFE4F859194918FB7F894EC91E22BA1
:10122000EC938FBF0895BC01990F880B990B97FD24
:101230000C94D3084AE00C949008CF93DF93BC0140
:10124000990F880B990B97FF03C00E94D30803C026
:101250004AE00E949008EC0164E771E08CE292E0C1
:101260000E9436128C0F9D1FDF91CF91089581E06F
:1012700090E0909316028093150265EF70E08CE287
:1012800092E00E94121264EE70E08CE292E00E9402
:1012900012120E94160D66ED70E08CE292E00E9440
:1012A000121280911502909116020C941D090F9351
:1012B0001F93CF93DF93EC018B018C859D85029763
:1012C000F1F46130710569F024F4672BC1F460E03A
:1012D00009C06230710559F06330710581F460E036
:1012E00007C061E088890E945D0B61E005C061E094
:1012F00088890E945D0B60E08A890E945D0B8C8565
:101300009D850497B9F501301105B1F04CF4011534
:10131000110581F561E088890E945D0B60E011C0D4
:1013200002301105B9F00330110521F561E088891B
:101330000E945D0B60E013C060E088890E945D0B35
:1013400061E08A890E945D0B61E08C890E945D0BDF
:1013500060E00DC060E088890E945D0B61E08A89D1
:101360000E945D0B60E08C890E945D0B61E08E89BC
:101370000E945D0B8C859D85059709F073C00A302E
:10138000110508F06FC0F801EC5CFF4F0C94F818E1
:1013900060E088890E945D0B61E051C060E088894F
:1013A0000E945D0B61E08A890E945D0B60E04BC08A
:1013B00060E088890E945D0B61E08A890E945D0B74
:1013C00060E08C890E945D0B61E041C060E001C07B
:1013D00061E088890E945D0B61E005C061E0888959
:1013E0000E945D0B60E08A890E945D0B60E009C08D
:1013F00061E088890E945D0B60E08A890E945D0B34
:1014000061E08C890E945D0B61E00DC061E088891C
:101410000E945D0B60E08A890E945D0B61E08C890F
:101420000E945D0B60E08E890E945D0B60E013C03E
:1014300061E001C060E088890E945D0B60E08A89FC
:101440000E945D0B61E08C890E945D0B60E08E89DB
:101450000E945D0B61E0888DDF91CF911F910F910C
:101460000C945D0BDF91CF911F910F91089508951A
:101470000895E091530480915204E81730F4F0E0AD
:10148000EE5CFB4F808190E008958FEF9FEF089511
:101490009091530480915204981750F4E92FF0E092
:1014A000EE5CFB4F208130E09F5F9093530402C0BD
:1014B0002FEF3FEFC90108958091520490E02091F1
:1014C0005304821B9109089521E001C0220F6A95FF
:1014D000EAF7DC0157962C9357971A965C934E9334
:1014E0001997ED91FC910484F585E02D60E0099455
:1014F000DC01ED91FC910684F785E02D41E0099532
:1015000081E090E0089508950895CF92DF92EF92E0
:10151000FF920F931F93CF93DF937C01CB018A013E
:1015200020917B04222389F0EB016B01C40ED51EB0
:10153000CC15DD0569F06991D701ED91FC91019021
:10154000F081E02DC7010995F3CF642F0E94E002DE
:10155000C801DF91CF911F910F91FF90EF90DF9025
:10156000CF900895CF93DF931F92CDB7DEB76983F5
:1015700020917B042223D1F020919E04203240F060
:1015800021E030E0FC013383228380E090E015C04D
:1015900080917C04E82FF0E0E358FB4F9981908321
:1015A0008F5F80937C0480939E0405C061E0CE0130
:1015B00001960E94E00281E090E00F90DF91CF91D0
:1015C00008950F931F93CF93DF93062F0F70423030
:1015D00019F440E0602F0EC0142FEC0170E084E09D
:1015E000759567958A95E1F7CE010E948201412F9A
:1015F000602FCE01DF91CF911F910F910C9482014A
:10160000FC0187898823A9F02185328521153105C0
:1016100019F4611106C007C02130310521F46111B0
:1016200002C0808F01C0108E608DCF0149960C944E
:10163000D20E08950895DC01ED91FC910684F785A2
:10164000E02D40E0099461E00E941B0B8BE39FE1D9
:101650000197F1F70895EF92FF920F931F93CF93A5
:10166000DF93EC01842F1F861E861F821E821A8E36
:101670001B8E1C8E1D8E7D836C83488B598B3B8B00
:101680002A8B1D8B0C8BFF8AEE8A0E94F4088A89B4
:101690000E94F4088C890E94F4088E890E94F40844
:1016A000198E188E84E090E09D878C87DF91CF9112
:1016B0001F910F91FF90EF90089590E0FC01EE5B79
:1016C000FE4F2491FC01E25DFE4F3491FC01E65E89
:1016D000FE4FE491EE2309F43CC0222339F123307C
:1016E00091F038F42130A9F0223001F584B58F7DD6
:1016F00012C0273091F02830A1F02430B9F4809145
:1017000080008F7D03C0809180008F778093800060
:101710000DC084B58F7784BD09C08091B0008F77EC
:1017200003C08091B0008F7D8093B000F0E0EE0F99
:10173000FF1FEA5FFE4FA591B4919FB7F894611126
:1017400004C08C913095382302C0EC913E2B3C9321
:101750009FBF08958E3008F08E508770806480930C
:101760007C0080917A00806480937A0080917A0076
:1017700086FDFCCF809178002091790090E0922B3B
:1017800008953FB7F89480912E0490912F04A09172
:101790003004B091310426B5A89B05C02F3F19F045
:1017A0000196A11DB11D3FBFBA2FA92F982F8827E1
:1017B000820F911DA11DB11DBC01CD0142E0660F3C
:1017C000771F881F991F4A95D1F708958F929F928E
:1017D000AF92BF92CF92DF92EF92FF926B017C01AA
:1017E0000E94C10B4B015C01C114D104E104F1045E
:1017F000F1F00E94C10BDC01CB0188199909AA09FB
:10180000BB09883E9340A105B10570F321E0C21ADF
:10181000D108E108F10888EE880E83E0981EA11C2B
:10182000B11CC114D104E104F10419F7DDCFFF901C
:10183000EF90DF90CF90BF90AF909F908F900895E2
:101840000F931F93CF93DF93EC01423018F08C81FC
:1018500088608C834F836887222329F0413019F4F4
:101860008C8184608C8364E670E080E090E00E946C
:10187000E60B6C8164FD31C0E881F9810684F7854F
:10188000E02D42E063E0CE0109958BE496E40197F8
:10189000F1F7E881F9810684F785E02D42E063E005
:1018A000CE01099503E512E0C8010197F1F7E8813F
:1018B000F9810684F785E02D42E063E0CE010995C9
:1018C000C8010197F1F7E881F9810684F785E02DD9
:1018D00042E062E0CE01099517C06062CE010E942D
:1018E0001B0B8BE496E40197F1F76C816062CE01EB
:1018F0000E941B0B03E512E0C8010197F1F76C8110
:101900006062CE010E941B0BC8010197F1F76C8148
:101910006062CE010E941B0B8BEE90E00197F1F705
:1019200084E08D836CE0CE010E941B0BCE010E94EF
:10193000230B82E08E8366E0CE010E941B0BE881C0
:10194000F9810484F585E02D6FEFCE01DF91CF9111
:101950001F910F910994EF92FF920F931F93CF93D2
:10196000DF93EC01062FF42EE22E8E898B8F1092DE
:1019700053041092520410927C0410929E04109210
:101980007A0411E0109379041092540461E082E12A
:101990000E945D0B61E083E10E945D0B8091B900C4
:1019A0008E7F8093B9008091B9008D7F8093B900BC
:1019B00088E48093B80085E48093BC0087E39AE0D4
:1019C0009093C5018093C40188E39AE09093C70186
:1019D0008093C6018B8D10937B0480939D0410929D
:1019E0007C0410929E040E94760E91E0811190E09A
:1019F0009C8F811105C088E192E00E94480A898F7E
:101A00008C8D882339F01A8E1C8260E0CE014996B5
:101A10000E94D20E2E2D4F2D602FCE01DF91CF913F
:101A20001F910F91FF90EF900C94200C2FB7F8941A
:101A300060912A0470912B0480912C0490912D04C4
:101A40002FBF08951F920F920FB60F9211242F935C
:101A50003F938F939F93AF93BF9380912A0490916C
:101A60002B04A0912C04B0912D043091290423E083
:101A7000230F2D3720F40196A11DB11D05C026E8C6
:101A8000230F0296A11DB11D2093290480932A04DF
:101A900090932B04A0932C04B0932D0480912E04DA
:101AA00090912F04A0913004B09131040196A11DB2
:101AB000B11D80932E0490932F04A0933004B09313
:101AC0003104BF91AF919F918F913F912F910F90D2
:101AD0000FBE0F901F9018950F931F930E94160D25
:101AE00060933402709335028093360290933702EC
:101AF0008CE292E00E94F21097FF1FC00E94160D28
:101B00000091340210913502209136023091370253
:101B1000DC01CB01801B910BA20BB30B00913002B7
:101B200010913102209132023091330280179107D7
:101B3000A207B307E8F28FEF9FEF1F910F9108956F
:101B40004F925F926F927F928F929F92AF92BF92CD
:101B5000CF92DF92EF92FF920F931F93CF93DF9379
:101B6000EC018B0177FF04C000271127061B170B20
:101B7000161617062CF481E090E09F838E8304C034
:101B8000672B11F01F821E8284E0E82EF12C9AE070
:101B9000C92ED12C0115110509F452C00E94C10BA8
:101BA0008A8C9B8CAC8CBD8C2B013C01481859084D
:101BB0006A087B0888849984AA84BB8448145904E1
:101BC0006A047B0498F16A8F7B8F8C8F9D8F2E81A6
:101BD0003F818E859F852130310559F401969F877D
:101BE0008E872C813D818217930771F41F861E8694
:101BF0000BC0892B21F48C819D819F878E878E85D8
:101C00009F8501979F878E87015011092C853D85FF
:101C10008E859F852530310511F4B60101C0B701CD
:101C20000E94A318BC01CE010E94570988819981A6
:101C3000019719F41B830A8303C01B821A82AACF5F
:101C400019821882DF91CF911F910F91FF90EF9031
:101C5000DF90CF90BF90AF909F908F907F906F90CC
:101C60005F904F900895CF93DF93CDB7DEB728975D
:101C70000FB6F894DEBF0FBECDBFFC0180914601C8
:101C800090914701A0914801B09149018D839E83B5
:101C9000AF83B88780914A0190914B01A0914C018C
:101CA000B0914D0189839A83AB83BC8387814817A8
:101CB00010F04FEF480F908550E0DE01A40FB51FE4
:101CC000903129F4843019F411969C9102C0159634
:101CD0009C91690F6068CF0128960FB6F894DEBF1B
:101CE0000FBECDBFDF91CF910C941B0B30919E04A2
:101CF000313208F04BC080917A048111FCCF909171
:101D00009D0422E020937A0421E0209379042FEFB0
:101D1000209378041092770430937604EDE7F4E092
:101D2000A6E5B4E020E0321721F041914D932F5FFA
:101D3000FACF1092550420915504990F922B90934D
:101D4000550490915404913061F410925404909190
:101D500055049093BB009091BC0093FDF8CF95EC97
:101D600001C095EE9093BC0090917A049230E1F31B
:101D7000909178049F3F79F080917804803241F00F
:101D800080917804803331F084E005C081E003C0A5
:101D900082E001C083E010927C0410929E041092B5
:101DA0007B040895FC0183818823C1F0962F618113
:101DB000609569236083828191E090937B04809396
:101DC0009D0410927C0410929E0488E192E00E948F
:101DD000B20A0E94760E282F30E002C020E030E0E8
:101DE00081E090E0232B11F080E090E008958F9245
:101DF000AF92CF92EF920F93CF93DF93CDB7DEB731
:101E0000FC019A8513821282A2E5B1E0B183A0831E
:101E1000138E8FEF828F118E148E668B178A108E21
:101E20001286118681E0382F01C0330F4A95EAF7F8
:101E3000358F382F01C0330F2A95EAF7368F282FB8
:101E400001C0220F0A95EAF7278F282F01C0220F21
:101E5000EA94EAF720A3282F01C0220FCA94EAF7D8
:101E600021A3282F01C0220FAA94EAF722A301C0C0
:101E7000880F8A94EAF783A340E050E0692FCF01EE
:101E8000DF91CF910F91EF90CF90AF908F900C9406
:101E9000640A8F92AF92CF92EF920F93CF93DF931A
:101EA000CDB7DEB7A4970FB6F894DEBF0FBECDBF97
:101EB00083E08F9387E0882E96E0A92E25E0C22E3E
:101EC00034E0E32E00E021E042E067E2CE0101963B
:101ED0000E94F70E81E090E0909316028093150225
:101EE00020E042E060E1CE0101960E94AB0CCE0101
:101EF00001960E94230B40E060E0CE0101960E9413
:101F0000330E65E771E0CE0101960E94121241E0A6
:101F100060E0CE0101960E94330E64E671E0CE01CE
:101F200001960E9412120E94160D66E571E08CE285
:101F300092E00E94121280911502909116020E9466
:101F40001D090F90A4960FB6F894DEBF0FBECDBF4B
:101F5000DF91CF910F91EF90CF90AF908F90089538
:101F6000EF92FF920F931F93CF93DF9300D0CDB7E3
:101F7000DEB78C01FC01118210821382128215825D
:101F8000148260E070E00E94E611F8012081318146
:101F900081110EC02115310519F0C9010E94AA193D
:101FA000F80111821082158214821382128208C0F5
:101FB000F8011582148266E771E0C9010E94101BC6
:101FC0000E946C0D97FD1EC089831A82F801E4807F
:101FD000F580FFEFEF1AFF0AB701C8010E94E61172
:101FE000882371F3F8012081318184819581BE01BC
:101FF0006F5F7F4F820F931F0E94101BF801F582C5
:10200000E482DECFC8010F900F90DF91CF911F9136
:102010000F91FF90EF900895CF92DF92EF92FF9291
:102020000F931F93CF93DF93CDB7DEB76E970FB6A5
:10203000F894DEBF0FBECDBF8BE0E82EF12C0AE096
:1020400010E029E030E048E050E060E470E0CE01CC
:1020500001960E942B0B0091A1041091A20481E033
:102060000E94AA0B9093A00480939F04C12C97E830
:10207000D92E93E9E92E93E0F92E80919F04909157
:10208000A00481359105C4F120910A0130910B0122
:1020900040910C0150910D01C701B6010E94D91861
:1020A00029873A874B875C876FEF7FEFCE010196D8
:1020B0000E94A00D69EB71E08CE292E00E944B124D
:1020C0008091A1049091A2040E941D0981E00E94C8
:1020D000AA0B9093A4048093A304803591052CF45B
:1020E0001092A2041092A10407C01093A2040093BE
:1020F000A10401501109C1CF6E960FB6F894DEBF4E
:102100000FBECDBFDF91CF911F910F91FF90EF9048
:10211000DF90CF900895EF92FF920F931F93CF938C
:10212000DF93CDB7DEB76E970FB6F894DEBF0FBE64
:10213000CDBF8BE0E82EF12C0AE010E029E030E082
:1021400048E050E060E470E0CE0101960E942B0B65
:102150006E960FB6F894DEBF0FBECDBFDF91CF9164
:102160001F910F91FF90EF900895CF92DF92EF9221
:10217000FF920F931F93CF93DF936C017A018B0132
:10218000C0E0D0E0CE15DF0581F0D8016D918D0162
:10219000D601ED91FC910190F081E02DC6010995E9
:1021A000892B11F02196EECF7E01C701DF91CF91EF
:1021B0001F910F91FF90EF90DF90CF9008950895B9
:1021C00080E090E00895FC01538D448D252F30E090
:1021D000842F90E0821B930B541710F0CF96089534
:1021E00001970895FC01918D828D981761F0828D81
:1021F000DF01A80FB11D5D968C91928D9F5F9F733B
:10220000928F90E008958FEF9FEF0895FC01918DDC
:10221000828D981731F0828DE80FF11D858D90E049
:1022200008958FEF9FEF0895FC01918D228D892FE6
:1022300090E0805C9F4F821B91098F7399270895CE
:102240008CE292E00E94141121E0892B09F420E035
:10225000822F0895FC01848DDF01A80FB11DA35AC0
:10226000BF4F2C91848D90E001968F739927848FB6
:10227000A689B7892C93A089B1898C9183708064D9
:102280008C93938D848D981306C00288F389E02D7A
:1022900080818F7D80830895EF92FF920F931F932B
:1022A000CF93DF93EC0181E0888F9B8D8C8D981309
:1022B00005C0E889F989808185FD26C0F62E0B8D41
:1022C00010E00F5F1F4F0F731127E02E8C8DE81267
:1022D0000CC00FB607FCFACFE889F989808185FF29
:1022E000F5CFCE010E942A11F1CF8B8DFE01E80FB0
:1022F000F11DE35AFF4FF0829FB7F8940B8FEA89E4
:10230000FB89808180620AC09FB7F894EE89FF89BB
:102310006083E889F98980818370806480839FBFAE
:1023200081E090E0DF91CF911F910F91FF90EF90AE
:102330000895CF93DF93EC01888D8823C9F0EA8953
:10234000FB89808185FD05C0A889B9898C9186FDAE
:102350000FC00FB607FCF5CF808185FFF2CFA889AB
:10236000B9898C9185FFEDCFCE010E942A11E7CF6C
:10237000DF91CF91089580E090E0892B29F00E94B1
:10238000201181110C94000008950E94F91AFC019B
:1023900024813581232B31F421E061157105A1F0F1
:1023A000FB0108C0FC01808191816115710531F448
:1023B00021E0FC018081882339F005C00E94071BC1
:1023C00021E0892B09F020E0822F08950F931F93BD
:1023D000CF93DF93EC0188819981009729F02A81BE
:1023E0003B812617370788F48B016F5F7F4F0E9470
:1023F000331A009761F0998388831B830A832C81A9
:102400003D81232B11F4FC01108281E001C080E0AA
:10241000DF91CF911F910F910895FC0180819181EF
:102420000C94AA19EF92FF920F931F93CF93DF930F
:102430008C017B01C0E0D0E0F701EC0FFD1F64913F
:10244000662361F0D801ED91FC910190F081E02DBF
:10245000C8010995892B11F02196EECFCE01DF91AD
:10246000CF911F910F91FF90EF9008956115710525
:1024700079F0FB0101900020E9F73197AF01461B8D
:10248000570BDC01ED91FC910280F381E02D099462
:1024900080E090E008950C9436121F920F920FB6D0
:1024A0000F9211242F933F934F935F936F937F93DA
:1024B0008F939F93AF93BF93EF93FF938CE292E040
:1024C0000E942A11FF91EF91BF91AF919F918F913F
:1024D0007F916F915F914F913F912F910F900FBE20
:1024E0000F901F9018951F920F920FB60F92112404
:1024F0002F938F939F93EF93FF93E0913C02F09182
:102500003D028081E0914202F091430282FD12C0BF
:102510009081809145028F5F8F73209146028217D0
:1025200051F0E0914502F0E0E45DFD4F958F80931E
:10253000450201C08081FF91EF919F918F912F9172
:102540000F900FBE0F901F901895AF92BF92DF9221
:10255000EF92FF920F931F93CF93DF93EC017B01D8
:102560008B015C0182E0A80EB11CF801D1908F01B3
:10257000CE010E945618D81621F06D2DCE010E9472
:102580005E182196CA15DB0581F7C701DF91CF914F
:102590001F910F91FF90EF90DF90BF90AF90089543
:1025A000CF93DF93EC011F861E861F821E821A8E38
:1025B0001B8E1C8E1D8E88890E94F4088A890E94B9
:1025C000F4088C890E94F4088E890E94F408198E00
:1025D000188E84E090E09D878C8780E490E09D8356
:1025E0008C8388E090E0998B888B89E090E09B8BCE
:1025F0008A8B8AE090E09D8B8C8B8BE090E09F8BA8
:102600008E8BDF91CF910895CF93DF93CDB7DEB757
:10261000A4970FB6F894DEBF0FBECDBF789484B5F3
:10262000826084BD84B5816084BD85B5826085BDCE
:1026300085B5816085BD80916E00816080936E005C
:10264000109281008091810082608093810080914E
:1026500081008160809381008091800081608093FF
:1026600080008091B10084608093B1008091B000BF
:1026700081608093B00080917A00846080937A00BA
:1026800080917A00826080937A0080917A008160E4
:1026900080937A0080917A00806880937A0010920B
:1026A000C100E0913C02F0913D0282E08083E09124
:1026B0003802F09139021082E0913A02F0913B0227
:1026C0008FEC808310924402E0914002F09141022D
:1026D00086E08083E0913E02F0913F02808180613C
:1026E0008083E0913E02F0913F0280818860808388
:1026F000E0913E02F0913F02808180688083E0910A
:102700003E02F0913F0280818F7D808362E671E01E
:102710008CE292E00E944B12CE0101960E94B00F13
:1027200062E771E0CE0101960E94C711182FCE0119
:1027300001960E940D12112361F081E090E09093C8
:10274000E8028093E70261E08CE292E00E944C1183
:1027500004C01092E8021092E70280912704909141
:102760002804892B09F04CC083E08F93B7E08B2EAF
:1027700016E0A12E05E0C02E84E0E82E00E021E066
:1027800042E067E2CE0101960E94F70E1092160217
:102790001092150220E042E060E1CE0101960E9415
:1027A000AB0C40E063E0CE0101960E94330E65E978
:1027B00070E0CE0101960E94121241E062E0CE016B
:1027C00001960E94330E66E870E0CE0101960E94E9
:1027D00012126CE770E08CE292E00E94121280917B
:1027E0001502909116020E941D090E940C1060EAC9
:1027F0007FE080E090E00E94E60B0E94490F0F907E
:102800008091270490912804019791F51092160267
:102810001092150267EB70E08CE292E00E941212B7
:1028200068EA70E08CE292E00E94121264E771E0C4
:102830008CE292E00E9436126FE970E08CE292E046
:102840000E94121280911502909116020E941D0999
:1028500080911502909116020E941D090E940C1091
:1028600060EA7FE080E090E00E94E60B0E9437097A
:1028700067E771E08CE292E00E944B126CE771E036
:102880008CE292E00E94361264E771E08CE292E002
:102890000E94361266246394712CF6E44F2E512C5C
:1028A000A7E42A2E312C13E00E94160D80912704F4
:1028B00090912804009721F0019709F45EC118C394
:1028C00060E871E08CE292E00E944B1267E771E0F1
:1028D0008CE292E00E944B128091150290911602B8
:1028E0000E94130967E771E08CE292E00E944B12AC
:1028F0000E9433010E94130967E771E08CE292E0C5
:102900000E944B120E9450019093C3018093C20118
:102910000E941D090E9433018130910561F10297E7
:1029200009F05EC01F9387E0882E96E0A92E25E06F
:10293000C22E34E0E32E00E021E042E067E2CE0167
:1029400001960E94F70E309216022092150220E0A6
:1029500042E060E1CE0101960E94AB0CCE010196EF
:102960000E94230B40E062E0CE0101960E94330EEC
:102970006BE971E028C01F9347E0842E56E0A52E36
:1029800065E0C62E74E0E72E00E021E042E067E259
:10299000CE0101960E94F70E509216024092150247
:1029A00020E042E060E1CE0101960E94AB0CCE0136
:1029B00001960E94230B40E062E0CE0101960E9446
:1029C000330E6AE871E0CE0101960E944B1268E86E
:1029D00073E180E090E00E94E60B0E94490F0F90A7
:1029E0008091C2019091C30182309105F1F134F4DC
:1029F000009709F4BCC0019759F0BFC0843091051D
:102A000009F45DC00CF4B3C0059709F491C0B5C0DA
:102A10008091150290911602833D9105E9F054F4DE
:102A20008E369105B1F0823D910509F0A0C00E945B
:102A300025019DC08C3221E0920789F0803921E088
:102A4000920781F0843D910509F091C00E94230412
:102A50008EC00E9473048BC00E94F80088C00E9440
:102A6000B00385C00E943D0382C080911502909101
:102A70001602833D9105D1F054F48E369105C9F0CC
:102A8000823D910509F073C00E94080370C08C322A
:102A900021E0920771F0803921E0920769F0843DCE
:102AA000910509F064C00E947E0761C00E94D207B0
:102AB0005EC00E940C075BC00E949A0658C08091BD
:102AC000150290911602883321E0920741F164F4D7
:102AD000863321E09207E9F0FCF48F36910509F086
:102AE00046C00E94490543C0893022E09207D1F0D8
:102AF00034F488309240D9F50E94260838C08A30D4
:102B000022E0920791F08B30924089F50E9468058F
:102B10002EC00E9428052BC00E94070528C00E94D5
:102B2000E60425C00E94340622C00E94CE051FC0C4
:102B30008091150290911602883022E09207A9F048
:102B400064F48C3221E0920781F0803921E0920711
:102B500061F08E36910559F408C08A3022E0920760
:102B600021F01CF08B30924011F40E948B106EE526
:102B700071E080E090E00E94E60B8091C0019091AE
:102B8000C101019751F560E871E08CE292E00E948A
:102B90004B1267E771E08CE292E00E944B12809149
:102BA0001502909116020E94130967E771E08CE20A
:102BB00092E00E944B120E9433010E94130967E7C2
:102BC00071E08CE292E00E944B120E9450019093BF
:102BD000C3018093C2010E941D090E94330181300C
:102BE000910549F00297C9F430921602209215021D
:102BF0006BE971E006C050921602409215026AE835
:102C000071E08CE292E00E944B1268E873E180E090
:102C100090E00E94E60B0E943709CE0101960E94C7
:102C2000B00F69EA71E0CE0101960E94C711082F2A
:102C3000CE0101960E940D12002321F07092C10175
:102C40006092C001CE0101960E94B00F6FEA71E060
:102C5000CE0101960E94C711082FCE0101960E9455
:102C60000D12002321F01092C9011092C801CE016B
:102C700001960E94B00F61EB71E0CE0101960E94B7
:102C8000C711082FCE0101960E940D12002321F0DA
:102C90007092C9016092C801CE0101960E94B00FE6
:102CA00063EB71E0CE0101960E94C711082FCE019F
:102CB00001960E940D12002331F082E090E0909383
:102CC000C9018093C801CE0101960E94B00F65EB47
:102CD00071E0CE0101960E94C711082FCE01019626
:102CE0000E940D12002331F083E090E09093C9011F
:102CF0008093C801CE0101960E94B00F68E871E090
:102D0000CE0101960E94C711082FCE0101960E94A4
:102D10000D12002331F084E090E09093C90180937C
:102D2000C801CE0101960E94B00F67EB71E0CE01A1
:102D300001960E94C711082FCE0101960E940D1224
:102D4000002319F085E090E002C086E090E09093C7
:102D5000C9018093C8018091C2019091C301823062
:102D60009105F1F134F4009709F4BCC0019759F0D2
:102D7000BFC08430910509F45DC00CF4B3C0059761
:102D800009F491C0B5C08091150290911602833D5F
:102D90009105E9F054F48E369105B1F0823D91052C
:102DA00009F0A0C00E9425019DC08C3221E092074D
:102DB00089F0803921E0920781F0843D910509F086
:102DC00091C00E9423048EC00E9473048BC00E9495
:102DD000F80088C00E94B00385C00E943D0382C0F5
:102DE0008091150290911602833D9105D1F054F423
:102DF0008E369105C9F0823D910509F073C00E949D
:102E0000080370C08C3221E0920771F0803921E014
:102E1000920769F0843D910509F064C00E947E0725
:102E200061C00E94D2075EC00E940C075BC00E9476
:102E30009A0658C08091150290911602883321E0BD
:102E4000920741F164F4863321E09207E9F0FCF443
:102E50008F36910509F046C00E94490543C089306C
:102E600022E09207D1F034F488309240D9F50E94E4
:102E7000260838C08A3022E0920791F08B309240C9
:102E800089F50E9468052EC00E9428052BC00E946B
:102E9000070528C00E94E60425C00E94340622C00F
:102EA0000E94CE051FC080911502909116028830B5
:102EB00022E09207A9F064F48C3221E0920781F0BD
:102EC000803921E0920761F08E36910559F408C0EF
:102ED0008A3022E0920721F01CF08B30924011F4EE
:102EE0000E948B106EE571E080E090E00E94E60B9E
:102EF0000E94BB11D9CCCF93DF93E8E1F2E01382BB
:102F0000128288EE93E0A0E0B0E084839583A683EC
:102F1000B78328E131E031832083CCE2D2E01B8209
:102F20001A828C839D83AE83BF8386E391E099836D
:102F3000888385EC90E09D878C8784EC90E09F8768
:102F40008E8780EC90E0998B888B81EC90E09B8B56
:102F50008A8B82EC90E09D8B8C8B86EC90E09F8B33
:102F60008E8B198E1A8E1B8E1C8E6AE272E080E0A8
:102F700090E00E944218FC018081918190932B0285
:102F800080932A0268E272E0809108019091090121
:102F90000E944218FC0180819181909329028093C4
:102FA000280266E272E080910601909107010E947A
:102FB0004218FC0180819181909327028093260220
:102FC00064E272E080910401909105010E94421830
:102FD000FC0180819181909325028093240289E0F5
:102FE00094E00E94D01289EE93E00E94D01289EC06
:102FF00093E00E94D01289EA93E00E94D01289E8FF
:1030000093E00E94D01289E693E00E94D01289E4F6
:1030100093E00E94D01289E293E00E94D01289E0EE
:1030200093E00E94D01289EE92E00E94D01289ECC7
:1030300092E00E94D012E889F98982E08083EC85D1
:10304000FD851082EE85FF8587E68083188EEC89EA
:10305000FD8986E08083EA89FB89808180618083A5
:10306000EA89FB89808188608083EA89FB89808185
:1030700080688083EA89FB8980818F7D8083DF91EE
:10308000CF9108950F931F93CF93DF938C01EB01A2
:103090000E9456188883C80101960E945618898399
:1030A000CE01DF91CF911F910F910895F999FECF35
:1030B00092BD81BDF89A992780B50895262FF99978
:1030C000FECF1FBA92BD81BD20BD0FB6F894FA9A0B
:1030D000F99A0FBE019608952F923F924F925F92F8
:1030E0006F927F928F929F92AF92BF92CF92DF9218
:1030F000EF92FF920F931F93CF93DF93CDB7DEB77D
:10310000CA1BDB0B0FB6F894DEBF0FBECDBF099410
:103110002A88398848885F846E847D848C849B8467
:10312000AA84B984C884DF80EE80FD800C811B8175
:10313000AA81B981CE0FD11D0FB6F894DEBF0FBEA4
:10314000CDBFED01089597FB072E16F4009407D02C
:1031500077FD09D00E94FE1807FC05D03EF490953B
:1031600081959F4F0895709561957F4F0895A1E2D5
:103170001A2EAA1BBB1BFD010DC0AA1FBB1FEE1FF1
:10318000FF1FA217B307E407F50720F0A21BB30B3C
:10319000E40BF50B661F771F881F991F1A9469F7B8
:1031A00060957095809590959B01AC01BD01CF0114
:1031B0000895052E97FB1EF400940E94F01857FD09
:1031C00007D00E94B71807FC03D04EF40C94F018F7
:1031D00050954095309521953F4F4F4F5F4F089543
:1031E00090958095709561957F4F8F4F9F4F089573
:1031F000EE0FFF1F0590F491E02D0994AA1BBB1B55
:1032000051E107C0AA1FBB1FA617B70710F0A61BE6
:10321000B70B881F991F5A95A9F780959095BC0107
:10322000CD0108950F931F93CF93DF9382309105C3
:1032300010F482E090E0E091A704F091A80420E06F
:1032400030E0A0E0B0E0309719F140815181028177
:10325000138148175907C8F08417950769F4109728
:1032600031F012960C93129713961C9327C000937B
:10327000A7041093A80422C02115310519F04217A4
:10328000530718F49A01BD01EF01DF01F801DBCF0C
:1032900021153105F9F0281B390B2430310580F454
:1032A0008A819B816115710521F0FB0193838283E3
:1032B00004C09093A8048093A704FE01329644C0F2
:1032C000FE01E20FF31F819391932250310939835C
:1032D00028833AC02091A5043091A604232B41F401
:1032E00020911001309111013093A6042093A50480
:1032F00020910E0130910F012115310541F42DB7B8
:103300003EB74091120150911301241B350BE091FF
:10331000A504F091A604E217F307A0F42E1B3F0BBF
:103320002817390778F0AC014E5F5F4F2417350737
:1033300048F04E0F5F1F5093A6044093A50481935D
:10334000919302C0E0E0F0E0CF01DF91CF911F91B7
:103350000F910895CF93DF93009709F481C0FC018A
:10336000329713821282A091A704B091A8041097FB
:1033700081F420813181820F931F2091A504309127
:10338000A6042817390751F5F093A604E093A50485
:1033900067C0ED0120E030E0CE17DF0740F44A813E
:1033A0005B819E0141155105F1F0EA01F5CFD38310
:1033B000C28340815181840F951FC817D90759F4E2
:1033C00088819981840F951F0296918380838A81D9
:1033D0009B81938382832115310529F4F093A804FE
:1033E000E093A7043DC0E901FB83EA834991599129
:1033F000C40FD51FEC17FD0761F480819181840F04
:10340000951F0296E90199838883828193819B832A
:103410008A83E0E0F0E012968D919C9113970097DB
:1034200019F0FD01DC01F7CF8D919C9111979D0161
:103430002E5F3F4F820F931F2091A5043091A60469
:103440002817390769F4309729F41092A8041092CC
:10345000A70402C013821282B093A604A093A5040D
:10346000DF91CF910895A0E0B0E0E9E3FAE10C9498
:103470007018EC01009721F4CB010E941219B4C01E
:10348000FC01E60FF71F9C0122503109E217F307F8
:1034900008F4A8C0D9010D911C91119706171707C0
:1034A000B0F00530110508F49BC0C80104978617D9
:1034B000970708F495C002501109061B170B0193DA
:1034C00011936D937C93CF010E94AA1989C05B016F
:1034D000A01AB10A4C01800E911EA091A704B091D0
:1034E000A804612C712CE12CF12C109709F446C032
:1034F0008D919C911197A815B905B1F56C0142E029
:10350000C40ED11CCA14DB0478F14C018A189B0844
:10351000640142E0C40ED11C1296BC90129713961F
:10352000AC91B5E0CB16D10440F0B282A383918276
:103530008082D9016D937C9309C00E5F1F4F800F6D
:10354000911FF90191838083EB2DFA2FE114F1048F
:1035500031F0D7011396FC93EE93129741C0F0938C
:10356000A804E093A7043CC06816790608F43C015F
:103570007D0112960D90BC91A02DB7CF8091A5042E
:103580009091A60488169906E1F466167706C8F4A9
:1035900080910E0190910F01009741F48DB79EB775
:1035A0004091120150911301841B950BE817F90704
:1035B000C8F4F093A604E093A504F9017183608335
:1035C0000FC0CB010E9412197C01009759F0A8018D
:1035D000BE010E94FE1ACE010E94AA19C70104C0B2
:1035E000CE0102C080E090E0CDB7DEB7EEE00C94F3
:1035F0008C1881E090E0F8940C94171BFB01DC011F
:1036000002C001900D9241505040D8F70895FB013F
:10361000DC018D91019080190110D9F3990B089567
:10362000FB01DC0101900D920020E1F70895F89470
:02363000FFCFCA
:1036320010004000070005000300800700000000A2
:10364200A904200000000000B20A850AE0101A0B4B
:103652005C0A480A390A00000000C511B510E010E2
:10366200DF10000000004C11B510E3109911141185
:10367200F2100611000000401454004010500000E7
:103682000000780AB510E010DF10AB0C640A000BE2
:10369200E10A496E696369616E646F2053657475EE
:1036A200700079000D0A00203E3E20004F6B210081
:1036B20050726F636573736F7300496E6963696FEC
:1036C200206461207472696C68610046696D2064CF
:1036D20061207472696C686100646562756700726A
:1036E20000750064006C00630073746570733A00C7
:00000001FF
